:020000040020DA
:10000000002000201D502400395024003D502400C1
:1000100041502400455024004950240000000000B5
:100020000000000000000000000000004D5024000F
:100030005150240000000000555024005950240065
:100040005D50240061502400655024006950240054
:100050006D50240071502400755024007950240004
:100060007D502400815024008550240089502400B4
:100070008D50240091502400955024009950240064
:100080009D502400A1502400A5502400A950240014
:10009000AD502400B1502400B5502400B9502400C4
:1000A000BD502400C1502400C5502400C950240074
:1000B000CD502400D1502400D5502400D950240024
:1000C000DD502400E1502400E5502400E9502400D4
:1000D000ED502400F1502400F5502400F950240084
:1000E000FD50240001512400055124000951240031
:1000F0000D512400115124001551240019512400E0
:100100001D5124002151240025512400295124008F
:100110002D5124003151240035512400F50A2400CA
:10012000395124003D5124004151240045512400FF
:10013000495124004D5124005151240055512400AF
:10014000595124005D51240061512400655124005F
:10015000695124006D51240071512400755124000F
:10016000795124007D5124008151240085512400BF
:10017000895124008D512400915124000000000079
:1001800095512400995124009D512400A15124002F
:10019000A5512400A9512400AD512400B1512400DF
:1001A000B5512400B9512400BD512400C15124008F
:1001B000C5512400C9512400CD512400D15124003F
:1001C000D5512400D951240000000000DD51240045
:1001D000E1512400E5512400E9512400ED512400AF
:1001E000F1512400F5512400F9512400FD5124005F
:1001F000015224000552240000000000000000000D
:1002000000000000000000000000000000000000EE
:1002100000000000000000000000000000000000DE
:1002200000000000000000000000000000000000CE
:1002300000000000000000000000000000000000BE
:10024000000040C0C040404040C0C0C000000000AE
:100250000000000000000000000000000080C070EE
:100260003C0F07010000000000000000000000003B
:100270000000040203010000000000000000000074
:1002800000000000000000000040C0C04040C0C0AE
:10029000C04040C0C0C000000000000000000000DE
:1002A00080406030180E87C361301C0F03010000CE
:1002B000000000000000000000000000000100003D
:1002C000000000000000000000000000000000002E
:1002D0000040C0C0800000000000000000000000DE
:1002E0000000000000000000000000FFFF80808090
:1002F000808080804040200000000000000000005E
:1003000000000000010101010000000000000000E9
:1003100000000000000000000040C0C0C04040409D
:10032000404060604000000000000000000000004D
:10033000000000FFFF80808080808040402000001F
:1003400000000000000000000000000001010101A9
:10035000000000000000000000000000000000009D
:1003600040C0C040406040C0C040406060400000AD
:10037000000000000000000000FFFF80808040FFC0
:10038000FF808080808040000000000000000000AE
:100390000000010101000000010101000000000057
:1003A00000000000000000000040C0C0404040408D
:1003B000C0C040000000000000000000000000007D
:1003C0000008F8F8080808080F0B808040000000BB
:1003D000000000000000000000000103030303010F
:1003E000010100000000000000000000000000000B
:1003F00040C0C0C04040404040C0C0C000000000FD
:1004000000000000000000000000FFFF80808080EE
:1004100080FFBF000000000000000000000000009E
:1004200000000100000000000000000000000000CB
:1004300000000000000000000040C080000000003C
:1004400020E0C000000000000000000000000000EC
:100450000000FFFF0404040404FFFF00000000008C
:100460000000000000000000000003010101010184
:100470000103010000000000000000000000000077
:100480000040C0800020E0C00010F0E0000000004C
:1004900000000000000000000000FFFF0404FFFF58
:1004A0000404FFFF00000000000000000000000046
:1004B000000003010101030101010301000000002C
:1004C000000000000000000000000000000000200C
:1004D000E0C0C000000000000000000000000000BC
:1004E0008040402030180C060F0B1930706000005F
:1004F00000000000000000000000000000000000FC
:1005000000000000000000000000000000000000EB
:10051000000000000020E0C0C00020E0C0C00000DB
:100520000000000000000000201010884C46273D0D
:10053000180E1F3371600000000000000000000072
:1005400000000000000000000000000000000000AB
:100550000000000000000000000000808080E0E05B
:10056000808000000000000000000000000000008B
:10057000001E3F6140C0C0C040613F1E000000003F
:10058000000000000000000000000000000000006B
:10059000000000000000000000000000000000005B
:1005A0000040C0C04040404040C0C0C0000000000B
:1005B00000000000000000008040402030180C06C1
:1005C0000F0B1930706000000000000000000000F8
:1005D000000000000000000000000000000000001B
:1005E00000000000000000000040C0C040C0C0C0CB
:1005F0004040C0C0C000000000000000000000003B
:100600002010188CC6673D180C1E3361E0C0000036
:1006100000000000000000000000010000000000D9
:1006200000000000000000000000000000000000CA
:1006300000808080809090B0B0A08080000000009A
:100640000000000000000000008081416030180CB4
:100650001E133160E0C00000000000000000000038
:100660000100000000000000000000000000000089
:100670000000000000000000000040C0C0404040FA
:100680004040C0C0C00000000000000000000000AA
:1006900000040C0C84C464341C0C0703010000002B
:1006A0000000000000000000000002010100000046
:1006B000000000000000000000000000000000003A
:1006C00040C0C0C0404040404060400000000000CA
:1006D00000000000000000000000FFFF08080808FC
:1006E0000C088080400000000000000000000000B6
:1006F00000000103030303010101000000000000EA
:10070000000000000000000040C0C04040404040E9
:100710004040606040000000000000000000000059
:100720000000003E78600000413F1E8080400000D5
:1007300000000000000000000103030101010101AD
:1007400001010100000000000000000000000000A6
:1007500000000000103030302020008080000000B9
:100760000000000000000000010363F191090D0F7B
:100770000991F1610101000000000000000000008B
:100780000000000000010101010000000000000065
:100790000000000000000000000000000000000059
:1007A0000000000000000000000000000000000049
:1007B0000000000000000000000000000000000039
:1007C0000000000000000000000000000000000029
:1007D0000000000000000000000000000000000019
:1007E0000000000020606020202020202020202009
:1007F00020E0E0E000000000000000000000000039
:100800000000000000000000403F0F010000000059
:1008100000000000000000000000000000000000D8
:10082000000000000000000000002060202020E008
:10083000E0E000002060202020E0E0E00000000078
:10084000000000000000201F070000000000000062
:10085000201F070000000000000000000000000052
:100860000000000000000000000000000000000088
:100870000000002060E0C000000000000000000058
:10088000000000000000000000000000000F1F102A
:100890001010101010101018181810000000000090
:1008A0000000000000000000000000000000000048
:1008B00000000000000000000000001030F0F01008
:1008C0001010101010101018181000000000000078
:1008D00000000000000F1F10101010101010101852
:1008E00018181000000000000000000000000000C8
:1008F00000000000000000000000000000000000F8
:10090000000010F0F010101018100010F0F010108F
:1009100010181810000000000000000F1F303010E9
:10092000080804000F1F30303010100808000000C5
:1009300000000000000000000000000000000000B7
:100940000000000000000000000000001030301027
:1009500010101010101010F07010000000000000B7
:1009600000000001031F3F212121212121212121FC
:1009700031302000000000000000000000000000F6
:100980000000000000000000000000000000000067
:10099000000000001030F0F010101010101010F0D7
:1009A000F0300000000000000000000000001F0FF9
:1009B000080808080808080F0B00000000000000E5
:1009C0000000000000000000000000000000000027
:1009D0000000000000000000000000000010F0E037
:1009E0000000000000000008F8F000000000000017
:1009F0000000000000003F1F111111111111111111
:100A00003F1F000000000000000000000000000088
:100A100000000000000000000000000000000000D6
:100A20000000000020E0C00010F0E00010F0E00046
:100A300008F8F0000000000000000000003F1F1157
:100A4000113F1F00003F1F11113F1F000000000059
:100A50000000000000000000000000000000000096
:100A60000000000000000000000000000000000086
:100A7000000090F0E06000000000000000000000B6
:100A80000000201010080C040603030101020202FA
:100A900006040C0C1810000000000000000000000C
:100AA0000000000000000000000000000000000046
:100AB00000000000000010F0E06000000010F0E016
:100AC0006000000000000000002010180C06030168
:100AD00021131E0C06030302060C1C180000000064
:100AE0000000000000000000000000000000000006
:100AF0000000000000000000000000000000C0E056
:100B00002010101C1C101020E0C00000000000008D
:100B1000000000000000070F08101010101010084F
:100B20000F070000000000000000000000000000AF
:100B300000000000000000000000000000000000B5
:100B4000000000001030301010101090D0F0703005
:100B50001000000000000000000020201010080C11
:100B60000406030101020206040C1C180000000028
:100B70000000000000000000000000000000000075
:100B80000000000000000000000000103030109055
:100B9000D0F070301090D0F07030100000000000E5
:100BA000000010080C060321131E0C0603010302AB
:100BB000060C1C18000000000000000000000000EF
:100BC0000000000000000000000000000000000025
:100BD000000000002060602022262626A4E4E0E039
:100BE00060200000000000000000202020101008FD
:100BF00008040603030504040C081838300000003C
:100C000000000000000000000000000000000000E4
:100C10000000000000000000000000001030301054
:100C2000101010101010101010F0F0F00000000064
:100C30000000000002060602020202020201010197
:100C4000211F07000000000000000000000000005D
:100C50000000000000000000000000000000000094
:100C60000000001030F0F010101010101010109054
:100C7000981810000000000000000000000F1F1175
:100C8000111111111111111119191000000000009A
:100C90000000000000000000000000000000000054
:100CA0000000000000000000000000001030309044
:100CB000901010101050D0D09018181000000000A4
:100CC0000000000010303010171F101010181713FC
:100CD00011181810000000000000000000000000C3
:100CE0000000000000000000000000000000000004
:100CF00000000040C0C04040444C4CCCCC4C48406C
:100D000040606040000000000000000000000C1E79
:100D1000332121212121331E0C000000000000009E
:100D200000000000000000000000000000000000C3
:100D300000000000000000000000000000000000B3
:100D400000000000000000000000000000000000A3
:100D50000000000000000000000000000000000093
:100D60000000000000000000000000000000000083
:100D70000000000000000000000000000000000073
:100D800000000000040C0C0404040404040404FC2B
:100D9000FC1C00000000000000000000000000003B
:100DA000000000000000040300000000000000003C
:100DB0000000000000000000000000000000000033
:100DC00000000000000000000000040C0404040403
:100DD000FCFC1C00040C040404FCFC1C00000000CF
:100DE0000000000000000002010000000000000000
:100DF00002010000000000000000000000000000F0
:100E000000000000000000000000000000000000E2
:100E1000000000040CFCF80000000000000000804E
:100E200080800000000000000000000000000101C0
:100E300001010101010101010101010000000000A7
:100E400000000000000000000000000000000000A2
:100E50000000000000000000000000040CFCFC0486
:100E600004040404040404868684000000000000D6
:100E70000000000000000101010101010101010168
:100E8000010101000000000000000000000000005F
:100E90000000000000000000000000000000000052
:100EA00000000004FCFC040404068404FCFC0404AC
:100EB000040606840000000000000000000101019B
:100EC0000101010000010101010101010100000017
:100ED0000000000000000000000000000000000012
:100EE00000000000000000000000000040C4CCCC66
:100EF000444444444444447C5C040000000000003A
:100F000000000000000003070404040404040404B7
:100F100006060400000000000000000000000000C1
:100F200000000000000000000000000000000000C1
:100F30000000000000040CFCFC040404040404FC95
:100F40007C0C000000000000000000000000000316
:100F50000101010101010101010000000000000088
:100F60000000000000000000000000000000000081
:100F70000000000000000000000000000004FCF879
:100F800020202020202022FEFC0000000000000085
:100F90000000000000000703020202020202020732
:100FA000030000000000000000000000000000003E
:100FB0000000000000000000000000000000000031
:100FC0000000000008F8F02024FCF80004FCF820E1
:100FD00022FEFC00000000000000000000070302E9
:100FE00002070300000703020207030000000000DD
:100FF00000000000000000000000000000000000F1
:1010000000000000000000000000000000000000E0
:1010100080C0E47CB89880800000000000000000E0
:1010200000000004040203010100000000000101AF
:1010300001030302000000000000000000000000A7
:1010400000000000000000000000000000000000A0
:10105000000000000080C064FCB8180080C064FC80
:10106000B898000000000000000404020301000022
:10107000040503030100000000010307060000004F
:101080000000000000000000000000000000000060
:101090000000000000000000000000000000F0F868
:1010A00008040407070408F8F0000000000000002E
:1010B0000000000000000001010202020202010122
:1010C0000000000000000000000000000000000020
:1010D0000000000000000000000000000000000010
:1010E00000000000040C0C0484C44464347C5CCC18
:1010F00084800000000000000000000402020101E2
:1011000000000000000000000103030300000000D5
:1011100000000000000000000000000000000000CF
:1011200000000000000000000000040C84C4643CC7
:101130007CDC8484C4E47C3C5CC4848000000000CB
:10114000000202010100000404020301000000008B
:10115000000001010000000000000000000000008D
:10116000000000000000000000000000000000007F
:1011700000000000081818098B8BCB4B6AB8B89890
:1011800088000000000000000000000402020101CD
:101190000000000000000001030303000000000045
:1011A000000000000000000000000000000000003F
:1011B00000000000000000000000000044CCCC440F
:1011C0004444444424242424FCFC1C00000000006B
:1011D000000000000000000000000000000000040B
:1011E00003000000000000000000000000000000FC
:1011F00000000000000000000000000000000000EF
:1012000000000000040CFCFC2424242424242424B6
:10121000362604000000000000000000000001036A
:1012200002020202020202020303020000000000A6
:1012300000000000000000000000000000000000AE
:10124000000000000000000000000000040C0C245E
:10125000E4C404040414F46406060400000000005E
:10126000000000000206060202030202020302025C
:101270000303020000000000000000000000000066
:10128000000000000000000000000000000000005E
:101290000000000008181888C8492B3B3B2B4AC89F
:1012A000880C0C0800000000000000000000000195
:1012B0000302040404040203010000000000000013
:1012C000000000000000000000000000000000001E
:1012D000000000000000000000000000000000000E
:1012E00000000000000000000000000000000000FE
:1012F00000000000000000000000000000000000EE
:1013000000000000000000000000000000000000DD
:1013100000000000000000000000000000000000CD
:101320000000002060602020202020E0E0E000009D
:1013300000000000000000000000000000000000AD
:101340000000201F07000000000000000000000057
:10135000000000000000000000000000000000008D
:1013600000000000000000000020602020E0E000FD
:1013700020602020E0E000000000000000000000ED
:10138000000000100E0701000000100E0701000011
:10139000000000000000000000000000000000004D
:1013A000000000000000000000000000000000003D
:1013B0002060E0C00000000000000000000000000D
:1013C00000000000000000000000070F08080808E7
:1013D000080C0C08000000000000000000000000E5
:1013E00000000000000000000000000000000000FD
:1013F00000000000000000002060E0E0202020202D
:10140000303020000000000000000000000000005C
:101410000000070F08080808080C0C08000000006E
:1014200000000000000000000000000000000000BC
:1014300000000000000000000000000000000000AC
:101440000020E0E020203020E0E0203030200000CC
:10145000000000000000000000000F1F1808080036
:101460000F1F18180808040000000000000000000A
:10147000000000000000000000000000000000006C
:1014800000000000000000000020606020202020FC
:101490002020E060200000000000000000000000AC
:1014A00000021E3E2222222222223332200000008D
:1014B000000000000000000000000000000000002C
:1014C000000000000000000000000000000000001C
:1014D0000040C0C0C04040404040C0C0C00000000C
:1014E00000000000000000000000003F1F1010106E
:1014F00010101F1700000000000000000000000096
:1015000000000000000000000000000000000000DB
:101510000000000000000000000020E0C00000000B
:101520000010F0E0000000000000000000000000DB
:101530000000003F1F11111111113F1F000000009A
:10154000000000000000000000000000000000009B
:10155000000000000000000000000000000000008B
:1015600020E0C0000010F0E0000008F8F0000000EB
:101570000000000000000000003F1F1111113F1F7C
:101580001111113F1F0000000000000000000000CA
:10159000000000000000000000000000000000004B
:1015A0000000000000000000000000000010F0E05B
:1015B000E00000000000000000000000000000004B
:1015C0002010180C060303010202060E0C00000096
:1015D000000000000000000000000000000000000B
:1015E00000000000000000000000000000000000FB
:1015F00000000020E0C0C00010F0E060000000002B
:10160000000000000000000010080C0623131E0C50
:10161000060303060E0C000000000000000000009E
:1016200000000000000000000000000000000000BA
:1016300000000000000000000000C0E020101C1CA2
:101640001020E0C0000000000000000000000000CA
:10165000000003070408080808040703000000004E
:10166000000000000000000000000000000000007A
:10167000000000000000000000000000000000006A
:10168000000010303010101090F07030000000009A
:10169000000000000000000000100808040602011D
:1016A0000302060C0C000000000000000000000017
:1016B000000000000000000000000000000000002A
:1016C00000000000000000000010301090F07030AA
:1016D000101090F0703000000000000000000000CA
:1016E00004020211090B060602010103060E0C009A
:1016F00000000000000000000000000000000000EA
:1017000000000000000000000000000000000000D9
:101710000040C0C048585850D0C0400000000000F1
:10172000000000000000000010100808040402037C
:101730000103060E0C000000000000000000000085
:101740000000000000000000000000000000000099
:101750000000000000000000000020606020202049
:10176000202020E0E0E00000000000000000000079
:1017700000000206060202020202221F0700000009
:101780000000000000000000000000000000000059
:101790000000000000000000000000000000000049
:1017A0000040C0C0404040404040606040000000F9
:1017B000000000000000000000000F1F12121212B3
:1017C00012121B1A100000000000000000000000B0
:1017D0000000000000000000000000000000000009
:1017E00000000000000000000040C0C04040404039
:1017F00040C06060400000000000000000000000E9
:1018000000103010171E10101817131018100000B9
:1018100000000000000000000000000000000000C8
:1018200000000000000000000000000000000000B8
:10183000008080808090B0B0B0A080C0C0800000E8
:101840000000000000000000000001091C362223F7
:1018500023361C080000000000000000000000000B
:101860000000000000000000000000000000000078
:101870000000000000000000000000000000000068
:101880000000000000000000000000000000000058
:101890000000000000000000000000000000000048
:1018A0000000000000000000000000000000000038
:1018B0000000000000000000000000000000000028
:1018C00000002060602020202020E0E0E0000000F8
:1018D0000000000000000000000000000000000008
:1018E00000100F07000000000000000000000000D2
:1018F00000000000000000000000000000000000E8
:1019000000000000000000000020602020E0E00057
:1019100020602020E0E00000000000000000000047
:10192000000000100E0701000000100E070100006B
:1019300000000000000000000000000000000000A7
:101940000000000000000000000000000000000097
:10195000002060E0C0000000000000000000000067
:101960000000000000000000000000030704040461
:10197000040406060400000000000000000000004F
:101980000000000000000000000000000000000057
:101990000000000000000000002060E0E0202020A7
:1019A0002030302000000000000000000000000097
:1019B000000000070F08080808080C0C08000000C9
:1019C0000000000000000000000000000000000017
:1019D0000000000000000000000000000000000007
:1019E0000020E0E020203020E0E020303020000027
:1019F00000000000000000000000070F0C040400BD
:101A0000070F0C0C0404020000000000000000009E
:101A100000000000000000000000000000000000C6
:101A20000000000000000000000010303010101016
:101A30001010F07010000000000000000000000016
:101A40000000010F1F1111111111191910000000D0
:101A50000000000000000000000000000000000086
:101A60000000000000000000000000000000000076
:101A700000002060E0E02020202020E0E060000066
:101A80000000000000000000000000001F0F080818
:101A90000808080F0B000000000000000000000014
:101AA0000000000000000000000000000000000036
:101AB0000000000000000000000010F0E0808080C6
:101AC000808088F8F00000000000000000000000A6
:101AD0000000001F0F0808080808081F0F0000007A
:101AE00000000000000000000000000000000000F6
:101AF00000000000000000000000000000000000E6
:101B000010F0E0808088F8F0808084FCF80000000D
:101B10000000000000000000001F0F0808081F0F51
:101B20000808081F0F00000000000000000000006F
:101B300000000000000000000000000000000000A5
:101B4000000000000000000000000000000088F815
:101B5000F030000000000000000000000000000065
:101B6000000008040603010101010306060000004D
:101B70000000000000000000000000000000000065
:101B80000000000000000000000000000000000055
:101B90000000000090F060200088F8F030000000A5
:101BA000000000000000000008040603010B060608
:101BB0000301000103070600000000000000000010
:101BC0000000000000000000000000000000000015
:101BD0000000000000000000000000C0E020101C19
:101BE0001C1020E0C0000000000000000000000009
:101BF00000000003070408080808040703000000A9
:101C000000000000000000000000000000000000D4
:101C100000000000000000000000000000000000C4
:101C2000000010303010101090F0703000000000F4
:101C30000000000000000000001008080406020375
:101C4000010103060E0C000000000000000000006F
:101C50000000000000000000000000000000000084
:101C600000000000000000000010301090D0703024
:101C70001090D0F070301000000000000000000054
:101C80000804060311090F0603030102060C0C00E9
:101C90000000000000000000000000000000000044
:101CA0000000000000000000000000000000000034
:101CB000000040C0C048585850D0C040000000004C
:101CC00000000000000000000010100808040402DA
:101CD0000705040C0C0800000000000000000000D4
:101CE00000000000000000000000000000000000F4
:101CF00000000000000000000000206060202020A4
:101D00002020E0E0E00000000000000000000000F3
:101D1000000002060602020202120F070000000085
:101D200000000000000000000000000000000000B3
:101D300000000000000000000000000000000000A3
:101D4000000020E0E0202020202020B030200000F3
:101D50000000000000000000000000070F09090952
:101D60000909090D0D080000000000000000000036
:101D70000000000000000000000000000000000063
:101D8000000000000000000000206060A020202073
:101D900020E0B03020000000000000000000000043
:101DA000000008180B0F08080C0F0B0C08000000AF
:101DB0000000000000000000000000000000000023
:101DC0000000000000000000000000000000000013
:101DD0000040C0C0404858D8D85040606040000023
:101DE0000000000000000000000000040E1B1111A4
:101DF000111B0E04000000000000000000000000A5
:101E000000000000000000000000000000000000D2
:101E100000000000000000000000000000000000C2
:101E200000000000000000000000000000000000B2
:101E300000000000000000000000000000000000A2
:101E40000000000000000000000000000000000092
:101E50000000000000000000000000000000000082
:101E6000000010303010101010F0F0700000000072
:101E700000000000000000000040402030180C0668
:101E8000030100000000000000000000000000004E
:101E90000000000000000000000000000000000042
:101EA0000000000000000000001030101090F070E2
:101EB000101090F070000000000000000000000012
:101EC000000804060311080C0603010000000000CE
:101ED0000000000000000000000000000000000002
:101EE00000000000000000000000000000000000F2
:101EF000001030F0E00000000000000000000000D2
:101F000000000000000000000000000F1F1818185B
:101F100008080804040000000000000000000000A1
:101F200000000000000000000000000000000000B1
:101F30000000000000000000001030F0F010101051
:101F40001018181000000000000000000000000041
:101F50000000000F1F1818080808080404040000F7
:101F60000000000000000000000000000000000071
:101F70000000000000000000000000000000000061
:101F800010F0F010101018F0F010101818100000D9
:101F90000000000000000000000F1F180808040FD8
:101FA0001F181808080404000000000000000000CA
:101FB0000000000000000000000000000000000021
:101FC00000000000000000000000889898888888C1
:101FD0008888F8B808000000000000000000000039
:101FE0000000000F1F18181808080804040000005B
:101FF00000000000000000000000000000000000E1
:1020000000000000000000000000000000000000D0
:10201000001030F0F01010101010F0F03000000040
:1020200000000000000000000000000F070404048E
:10203000040407050000000000000000000000008C
:102040000000000000000000000000000000000090
:102050000000000000000000000010F0E080808020
:102060008088F8F000000000000000000000000080
:102070000000001F0F08080808081F0F00000000DC
:102080000000000000000000000000000000000050
:102090000000000000000000000000000000000040
:1020A00010F0E0808088F8F0808088F8F000000070
:1020B0000000000000000000001F0F0808081F0FAC
:1020C0000808081F0F0000000000000000000000CA
:1020D0000000000000000000000000000000000000
:1020E000000000000000000000000000000080C8A8
:1020F000F870300000000000000000000000000048
:1021000000080404020301000101030606000000A8
:1021100000000000000000000000000000000000BF
:1021200000000000000000000000000000000000AF
:102130000000000088F8F0300088F87030000000DF
:1021400000000000000000000804060311080D074D
:1021500003030103060E0C00000000000000000055
:10216000000000000000000000000000000000006F
:1021700000000000000000000000C0E020101C1C57
:102180001020E0C00000000000000000000000007F
:102190000000030704080808080407030000000003
:1021A000000000000000000000000000000000002F
:1021B000000000000000000000000000000000001F
:1021C0000000103030101090D0F07030100000007F
:1021D00000000000000000000000080404020301E9
:1021E000000103060E0C00000000000000000000CB
:1021F00000000000000000000000000000000000DF
:10220000000000000000000010301090F0F070108E
:102210001090F0F0700000000000000000000000CE
:102220000402030110090F06030103060C0C000051
:10223000000000000000000000000000000000009E
:10224000000000000000000000000000000000008E
:102250000000206060242C2CACE8E060200000002E
:102260000000000000000000000010080804060341
:102270000103060C1C180000000000000000000014
:10228000000000000000000000000000000000004E
:10229000000000000000000000809090909090905E
:1022A0009090F0701000000000000000000000009E
:1022B0000000212110180C0603010000000000009E
:1022C000000000000000000000000000000000000E
:1022D00000000000000000000000000000000000FE
:1022E000001030F0F01010101090181000000000D6
:1022F00000000000000000000000001F3F3131110D
:10230000111111080800000000000000000000008A
:1023100000000000000000000000000000000000BD
:102320000000000000000000001030B090101010FD
:1023300050D09818100000000000000000000000BD
:102340000010303013171010181713100808000071
:10235000000000000000000000000000000000007D
:10236000000000000000000000000000000000006D
:102370000020602024ACACECE8A02030200000005D
:102380000000000000000000000000060F191010FF
:1023900010190F06000000000000000000000000FF
:1023A000000000000000000000000000000000002D
:1023B000000000000000000000000000000000001D
:1023C000000000000000000000000000000000000D
:1023D00000000000000000000000000000000000FD
:1023E00000000000000000000000000000000000ED
:1023F00000000000000000000000000000000000DD
:102400000000000000081818080808080808080854
:10241000F878180000000000000000000000000034
:1024200000000000000000020100000000000000A9
:10243000000000000000000000000000000000009C
:102440000000000000000000000000081808080854
:10245000F8F818000818080808F8F8180000000034
:102460000000000000000002010000000000000069
:102470000201000000000000000000000000000059
:10248000000000000000000000000000000000004C
:10249000000000000818F8F0000000000000000034
:1024A000808000000000000000000000000000012B
:1024B0000101010101010101010101000000000011
:1024C000000000000000000000000000000000000C
:1024D0000000000000000000000000000818F8F8EC
:1024E000080808080808080C8C8800000000000094
:1024F00000000000000000010101010101010101D3
:1025000001010100000000000000000000000000C8
:1025100000000000000000000000000000000000BB
:1025200000000008F8F8080808088C08F8F80808FF
:10253000080C0C88000000000000000000010101F0
:10254000010101010001010101010101010000007F
:10255000000000000000000000000000000000007B
:102560000000000000000000000000000024ECEC6F
:1025700024242424242424243C2C040000000000CF
:102580000000000000000103020202020202020237
:102590000303020000000000000000000000000033
:1025A000000000000000000000000000000000002B
:1025B00000000000000818F8F8080808080808F8E3
:1025C0007818000000000000000000000000000378
:1025D00001010101010101010100000000000000F2
:1025E00000000000000000000000000000000000EB
:1025F000000000000000000000000000000004FCDB
:10260000F820202020202022FEFC000000000000F6
:1026100000000000000000030101010101010101AF
:1026200003010000000000000000000000000000A6
:10263000000000000000000000000000000000009A
:102640000000000004FCF82024FCF80004FCF82042
:1026500022FEFC0000000000000000000003010159
:10266000010301000003010101030100000000005B
:10267000000000000000000000000000000000005A
:102680000000000000000000000000000080C040CA
:1026900060303A1E2C24206040C0C0800000000042
:1026A0000000000101000000000000000000000028
:1026B0000000010100000000000000000000000018
:1026C000000000000000000000000000000000000A
:1026D000000000000080C0643C78D880C0643C7872
:1026E00058C08080000000000000020201010000CC
:1026F00002020101000000000000010101000000D1
:1027000000000000000000000000000000000000C9
:10271000000000000000000000000000000000F0C9
:10272000F8080407070408F8F000000000000000A3
:10273000000000000000000001010202020201018D
:102740000000000000000000000000000000000089
:102750000000000000000000000000000000000079
:102760000000000000040C8C84C44464347C5C4C85
:10277000CCC48080000000000000000202010100C3
:102780000000000000000000000001010000000047
:102790000000000000000000000000000000000039
:1027A00000000000000000000000040C84C4643C31
:1027B0005CCC840484C4643C5CCC84800000000055
:1027C00000020201010000000002020101000000FD
:1027D00000000101000000000000000000000000F7
:1027E00000000000000000000000000000000000E9
:1027F000000000000818188888C94B6B2B3A5858FD
:1028000058C8C080800000000000000202010101E1
:1028100000000000000000000000000101000000B6
:1028200000000000000000000000000000000000A8
:102830000000000000000000000000000044CCCCBC
:10284000C44444444444442424FC7C1C0000000050
:102850000000000000000000000000000000000078
:102860000201000000000000000000000000000065
:102870000000000000000000000000000000000058
:1028800000000000040CFCFC24242424242424360E
:10289000A68400000000000000000000000000010D
:1028A000010101010101010101010100000000001D
:1028B0000000000000000000000000000000000018
:1028C000000000000000000000000000040C0414E0
:1028D00074E4040414F474240686840000000000E8
:1028E00000000000010303010101010101010101D8
:1028F00001010101000000000000000000000000D4
:1029000000000000000000000000000000000000C7
:102910000000000008181888C9692B3B3B2A68C8CA
:10292000880C0C08000000000000000000000000FF
:102930000103020202020301000000000000000087
:102940000000000000000000000000000000000087
:102950000000000000000000000000000000000077
:102960000000000000000000000000000000000067
:102970000000000000000000000000000000000057
:102980000000000000000000000000000000000047
:102990000000000000000000000000000000000037
:1029A00000000008180808080808F8F838000000B7
:1029B0000000000000000000000000000000000017
:1029C0000000010000000000000000000000000006
:1029D00000000000000000000000000000000000F7
:1029E00000000000000000000008180808F878083F
:1029F000080808F87800000000000000000000004F
:102A000000000000010000000000010000000000C4
:102A100000000000000000000000000000000000B6
:102A200000000000000000000000000000000000A6
:102A300000000818F8F0808080808040400000008E
:102A40000000000000000000000000000001010084
:102A50000000000000000000000000000000000076
:102A60000000000000000000000000000000000066
:102A7000000000000000000000000878F888888846
:102A80008888CCC880000000000000000000000022
:102A90000000000000000000000000000000000036
:102AA0000000000000000000000000000000000026
:102AB0000000000000000000000000000000000016
:102AC000000878F888888CC878F888888CC8000056
:102AD00000000000000000000000000000000000F6
:102AE00000000000000000000000000000000000E6
:102AF00000000000000000000000000000000000D6
:102B0000000000000000000000000024ECEC242481
:102B10002424BCAC04000000000000000000000001
:102B2000000000000001010101010101010000009D
:102B30000000000000000000000000000000000095
:102B40000000000000000000000000000000000085
:102B500000000818F8F808080808F87818000000BD
:102B6000000000000000000000000000030101015F
:102B70000101010100000000000000000000000051
:102B80000000000000000000000000000000000045
:102B9000000000000000000000000004FCF82020FD
:102BA0002022FEFC000000000000000000000000E9
:102BB0000000000003010101010103010000000009
:102BC0000000000000000000000000000000000005
:102BD00000000000000000000000000000000000F5
:102BE000000008F8F02024FCF82022FEFC00000081
:102BF00000000000000000000000000301010103CC
:102C000001010103010000000000000000000000BD
:102C100000000000000000000000000000000000B4
:102C20000000000000000000000080804060323E94
:102C30001C2C2060E0C0000000000000000000002C
:102C40000001000000000000000000000000000083
:102C50000000000000000000000000000000000074
:102C60000000000000000000000000000000000064
:102C700000808040623EFCCC40623E7CCCC0800044
:102C80000000000000000000010000000001000042
:102C90000000000000000000000000000000000034
:102CA0000000000000000000000000000000000024
:102CB000000000000000000000000070F888040719
:102CC000070488F870000000000000000000000009
:102CD00000000000000001010101000000000000F0
:102CE00000000000000000000000000000000000E4
:102CF00000000000000000000000000000000000D4
:102D00000000048C8C444424345C4CC480000000DB
:102D100000000000000000000001010000000000B1
:102D200000000000000000000000000000000000A3
:102D30000000000000000000000000000000000093
:102D400000000000000000000080844464345CCC7B
:102D5000C464345CCC8480000000000000000000EB
:102D6000010000000201010000000000000101005C
:102D70000000000000000000000000000000000053
:102D80000000000000000000000000000000000043
:102D90000000081818898B4B6AB8988880000000DA
:102DA000000000000000000000020201010000001D
:102DB0000000000101010000000000000000000010
:102DC0000000000000000000000000000000000003
:102DD0000000000000000000000020646C24242497
:102DE0002424FCFC3C000000000000000000000067
:102DF00000000000000000000000010000000000D2
:102E000000000000000000000000000000000000C2
:102E100000000000000000000000000000000000B2
:102E200000040CFCFC2424242424B6A60400000086
:102E3000000000000000000000000000010101018E
:102E4000010101010100000000000000000000007D
:102E50000000000000000000000000000000000072
:102E600000000000000000000000040C1474E404E2
:102E700014F474268400000000000000000000002C
:102E80000000010301010101010101010100000035
:102E90000000000000000000000000000000000032
:102EA0000000000000000000000000000000000022
:102EB00000000818C8E93B1B1B3AE8C80C080000D2
:102EC00000000000000000000000000000010302FC
:102ED00002030100000000000000000000000000EC
:102EE00000000000000000000000000000000000E2
:102EF00000000000000000000000000000000000D2
:102F000000000000000000000000000000000000C1
:102F100000000000000000000000000000000000B1
:102F200000000000000000000000000000000000A1
:102F30000000000000000000000000000000000091
:102F40000000000000000000000000000000000180
:102F500003FEFE0000000000000000000000000072
:102F6000000000000000000000FFFF04040606044B
:102F70000000000000000000000000000000000051
:102F800000FF3F0000000000000000000000000003
:102F9000000000000000040CF8F80103FEFE000031
:102FA0000000000000000000000000000000000021
:102FB000FFFF0404FFFF000000000000000000000D
:102FC00000000000000000003F0F0000FF3F000075
:102FD00000000000000000000000000000000001F0
:102FE00003FEFE00000000000000000000000000E2
:102FF000000000000000000000FFFF222233332207
:1030000000000000000000000000000000000000C0
:1030100000FF3F0000000000000000000000000072
:10302000000000000000040CF8F80103FEFE0000A0
:103030000000000000000000000000000000000090
:10304000FFFF1212FFFF0000000000000000000060
:1030500000000000000000003F0F0000FF3F0000E4
:103060000000000000000000000000000000000060
:103070000103FEFE00000000000000000000000050
:1030800000000000040C0C040404FFFF000000001A
:103090000000000000000000000000000000000030
:1030A0000000FF3F000000000000000000000000E2
:1030B000000000000000040CF8F80103FEFE000010
:1030C0000000000000000000000000040C0C0404DC
:1030D000FFFF0000FFFF00000000000000000000F4
:1030E00000000000000000003F0F0000FF3F000054
:1030F00000000000000000000000000000000000D0
:103100000103FEFE000000000000000000000000BF
:1031100000000000113333111111FFFF0000000007
:10312000000000000000000000000000000000009F
:103130000000FF3F00000000000000000000000051
:10314000000000000000040CF8F80103FEFE00007F
:1031500000000000000000000000001133331111D6
:10316000FFFF0000FFFF0000000000000000000063
:1031700000000000000000003F0F0000FF3F0000C3
:10318000000000000000000000000000000000003F
:10319000000000000000000000000000000000002F
:1031A0000020E0C00000000000000000000000005F
:1031B000040818180808080808080F0F0808080865
:1031C000080808080C0C0C080000000000000000B3
:1031D000000000000000000103FEFE0000000000EF
:1031E000000000000008F8F00000000000008080EF
:1031F00000FFFF20203030200102060602020303F8
:10320000020202010101000000FF3F000000000077
:103210000000000000000000000000000000040C9E
:10322000F8F80103FEFE0000000000000008F8F0BE
:103230000000000000808000FFFF1010FFFF000072
:10324000010206060202030302020101010000005E
:103250007F1F0000FF3F0000000000000000000092
:1032600000000000000000000103FEFE000000005E
:10327000000000000008F8F00000000000000080DE
:103280008000FFFF000000000102060602020303A7
:1032900002020202010101000000FF3F00000000E5
:1032A000000000000000000000000000000000001E
:1032B000000000000000000000000000000020E00E
:1032C000C000000020E0C00000000000000000007E
:1032D000040818180808080F0F080808080F0F0836
:1032E000080808080C0C0C08000000000000000092
:1032F00000000000000000000000000000000000CE
:103300001020606020202020202020E0E0202020CD
:10331000202020203030302000000000000000007D
:10332000000000FF3F00000000000000000000005F
:10333000000000000000000000000000000000008D
:103340000103FEFE000000002040C0C0404040C01D
:10335000C0404040402020201000FFFF000000003F
:10336000000000000000007F1F00000206060202AD
:103370000202FF3F0000000000000000000000000B
:10338000000000000000040CF8F80103FEFE00003D
:103390002040C0C0404040C0C040404040202000CD
:1033A000FFFF0000FFFF0000000000000000007FA2
:1033B0001F00000206060202FF3F0000FF3F000060
:1033C00000000000000000000000000000000000FD
:1033D0000103FEFE000000002040C0C0404040C08D
:1033E000C0404040402020201000FFFF00000000AF
:1033F000000000000000007F1F000000000000002F
:103400000000FF3F0000000000000000000000007E
:1034100000000000000000000000000000000000AC
:103420001020606020202020E0E020202020E0E02C
:10343000202020203030302000000000000000005C
:10344000FF3F00000000FF7F0000000000000000C0
:10345000000000000000000000000000000000006C
:10346000000000000000000000000000000000005C
:10347000000000000000000000000000000000004C
:1034800004081818080808080808080808080808A0
:10349000080808080C0C0C080000000000000000E0
:1034A00000000000000000000103FEFE000000001C
:1034B000800000000000000000000000008080800C
:1034C0004000FFFF000000000001030301010101B3
:1034D00001010101010000000000FF3F00000000A9
:1034E00000000000000000000000000000000000DC
:1034F0000103FEFE000000000000000000000000CC
:1035000000000000000000000000FFFF00000000BD
:1035100000000000000000000000000000000000AB
:103520000000FF3F0000000000000000000000005D
:10353000000000000000000000000000000000008B
:10354000000000000000000000000000000000007B
:10355000000000000000000000000000000000006B
:10356000000000000000000000000000000000005B
:10357000000000000000000000000000000000014A
:1035800003FEFE000000000000000000000000003C
:10359000000000000000000000FFFF040406060415
:1035A000000000000000000000000000000000001B
:1035B00000FF3F00000000000000000000000000CD
:1035C0000000000000040CF8F80103FEFE000000FB
:1035D000000000000000000000000000000000FFEC
:1035E000FF0404FFFF0000000000000000000000D6
:1035F000000000000000003F0F0000FF3F0000003F
:1036000000000000000000000000000000000001B9
:1036100003FEFE00000000000000000000000000AB
:10362000000000000000000000FFFF2222333322D0
:10363000000000000000000000000000000000008A
:1036400000FF3F000000000000000000000000003C
:103650000000000000040CF8F80103FEFE0000006A
:10366000000000000000000000000000000000FF5B
:10367000FF1212FFFF000000000000000000000029
:10368000000000000000003F0F0000FF3F000000AE
:10369000000000000000000000000000000000002A
:1036A0000103FEFE0000000000000000000000001A
:1036B0000000000000040C0C0404FFFF00000000E8
:1036C00000000000000000000000000000000000FA
:1036D0000000FF3F000000000000000000000000AC
:1036E000000000000000040CF8F80103FEFE0000DA
:1036F000000000000000000000000000040C0C04AA
:10370000FFFF0000FFFF00000000000000000000BD
:1037100000000000000000003F0F0000FF3F00001D
:103720000000000000000000000000000000000099
:103730000103FEFE00000000000000000000000089
:1037400000000000001133331111FFFF00000000E2
:103750000000000000000000000000000000000069
:103760000000FF3F0000000000000000000000001B
:10377000000000000000040CF8F80103FEFE000049
:1037800000000000000000000000000011331111D3
:10379000FFFF0000FFFF000000000000000000002D
:1037A00000000000000000003F0F0000FF3F00008D
:1037B0000000000000000000000000000000000009
:1037C00000000000000000000000000000000000F9
:1037D000000040C080000000000000000000000069
:1037E00004081818080808080808080F0F0808082F
:1037F000080808080C0C0C0800000000000000007D
:10380000000000000000000103FEFE0000000000B8
:10381000000000000000E0E00000000000008080E8
:1038200000FFFF20203030200102060602020303C1
:10383000020202010101000000FF3F000000000041
:103840000000000000000000000000000000040C68
:10385000F8F80103FEFE0000000000000000E0E0B8
:103860000000000000808000FFFF1010FFFF00003C
:103870000102060602020303020201010100000028
:103880007F1F0000FF3F000000000000000000005C
:1038900000000000000000000103FEFE0000000028
:1038A000000000000000E0E00000000000000080D8
:1038B0008000FFFF00000000010206060202030371
:1038C00002020202010101000000FF3F00000000AF
:1038D00000000000000000000000000000000000E8
:1038E0000000000000000000000000000000004098
:1038F000C08000000040C080000000000000000008
:1039000004081818080808080F0F080808080F0FFF
:10391000080808080C0C0C0800000000000000005B
:103920000000000000000000000000000000000097
:103930001020606020202020202020E0E020202097
:103940002020202030303020000000000000000047
:10395000000000FF3F000000000000000000000029
:103960000000000000000000000000000000000057
:103970000103FEFE000000002040C0C0404040C0E7
:10398000C0404040402020201000FFFF0000000009
:10399000000000000000007F1F0000020606020277
:1039A0000202FF3F000000000000000000000000D5
:1039B000000000000000040CF8F80103FEFE000007
:1039C0002040C0C0404040C0C04040404020200097
:1039D000FFFF0000FFFF0000000000000000007F6C
:1039E0001F00000206060202FF3F0000FF3F00002A
:1039F00000000000000000000000000000000000C7
:103A00000103FEFE000000002040C0C0404040C056
:103A1000C0404040402020201000FFFF0000000078
:103A2000000000000000007F1F00000000000000F8
:103A30000000FF3F00000000000000000000000048
:103A40000000000000000000000000000000000076
:103A50001020606020202020E0E020202020E0E0F6
:103A60002020202030303020000000000000000026
:103A7000FF3F00000000FF7F00000000000000008A
:103A80000000000000000000000000000000000036
:103A90000000000000000000000000000000000026
:103AA0000000000000000000000000000000000016
:103AB000040818180808080808080808080808086A
:103AC000080808080C0C0C080000000000000000AA
:103AD00000000000000000000103FEFE00000000E6
:103AE00080000000000000000000000000808080D6
:103AF0004000FFFF0000000000010303010101017D
:103B000001010101010000000000FF3F0000000072
:103B100000000000000000000000000000000000A5
:103B20000103FEFE00000000000000000000000095
:103B300000000000000000000000FFFF0000000087
:103B40000000000000000000000000000000000075
:103B50000000FF3F00000000000000000000000027
:103B60000000000000000000000000000000000055
:103B70000000000000000000000000000000000045
:103B80000000000000000000000000000000000035
:103B90000000000000000000000000000000000025
:103BA0000000000000000000000000000000000114
:103BB00003FEFE8080C0C080000000000000000006
:103BC0000000000000000000003F1F000000000097
:103BD00000000000000000000000000000000000E5
:103BE00000000000000000000000000000000000D5
:103BF00000000000000002FEFC8183FEFE000000C9
:103C00000000000000000000000000000000001F95
:103C10000F00003F1F000000000000000000000037
:103C20000000000000000000000000000000000094
:103C30000000000000000000000000000000000183
:103C400003FEFE2020B0B0200000000000000000B5
:103C50000000000000000000003F1F010101010101
:103C60000000000000000000000000000000000054
:103C70000000000000000000000000000000000044
:103C800000000000000002FEFC2123FEFE000000F8
:103C90000000000000000000000000000000001F05
:103CA0000F01013F1F0000000000000000000000A5
:103CB0000000000000000000000000000000000004
:103CC00000000000000000000000000080808080F4
:103CD0008183FEFE000000000000000000000000E4
:103CE000000000000001010000003F1F0000000074
:103CF00000000000000000000000000000000000C4
:103D000000000000000000000000000000000000B3
:103D100000008080808082FEFC0103FEFE00000027
:103D20000000000000000000000000010000001F73
:103D30000F00003F1F000000000000000000000016
:103D40000000000000000000000000000000000073
:103D500000000000000000000000000000002060E3
:103D60002123FEFE00000000000000000000000013
:103D7000000000000000010301013F1F00000000DF
:103D80000000000000000000000000000000000033
:103D90000000000000000000000000000000000023
:103DA00000000020602022FEFC0103FEFE00000057
:103DB0000000000000000000000000010301011FDE
:103DC0000F00003F1F000000000000000000000086
:103DD00000000000000000000000000000000000E3
:103DE00000000000000000000000808000000000D3
:103DF000000000000000000008103030101010100B
:103E00001010101F1F10101010101010181818107C
:103E100000000000000000000000000000000000A2
:103E20000000000000000000000000000000808092
:103E3000000000000000000103FEFE000080800082
:103E4000000810303010101F1F1010100808080450
:103E5000043F1F01010101010000000000000000FB
:103E60000000000000000000000000000000000052
:103E70000000000000008080000000000000000240
:103E8000FEFC8183FEFE0000000810303010101F81
:103E90001F101008080804041F0F00003F1F000037
:103EA0000000000000000000000000000000000012
:103EB0000000000000000000000000000000808002
:103EC00000000000000000000103FEFE00000000F2
:103ED000000810303010101F1F10101010080808B4
:103EE00004043F1F0000000000000000000000006C
:103EF00000000000000000000000000000000000C2
:103F000000000000000000000000000000000000B1
:103F100000000000000000000810303010101010E9
:103F2000121E1C10111F1E1010101010181818103F
:103F30000000000000000000000000000000000081
:103F40000000000000000000000000000000000071
:103F50000000000000000000000000000000000061
:103F600002040C0C04040404040404FC7C04040493
:103F7000040404040606060400000000000000001B
:103F80000000000000000000000000000000000031
:103F90000000000000000000000000000000000021
:103FA0000103FEFE0000000002040C0C0404047C6B
:103FB0003C040404020A1A1909083F1F000000000B
:103FC00000000000000000000000000000000000F1
:103FD00000000000000000000000000000000000E1
:103FE0000000000000000002FEFC0103FEFE0000D5
:103FF00002040C0C0404047C3C0404020A1A0908A0
:104000003F1F00003F1F00000000000000000000F4
:1040100000000000000000000000000000000000A0
:104020000000000000000000000000000000000090
:104030000103FEFE0000000002040C0C0404047CDA
:104040003C0404040202020101003F1F00000000C2
:104050000000000000000000000000000000000060
:104060000000000000000000000000000000000050
:104070000000000000000000000000000000000040
:1040800002040C0C04040404FC7C04040404FC7C02
:1040900004040404060606040000000000000000FA
:1040A0000000000000000000000000000000000010
:1040B0000000000000000000000000000000000000
:1040C0000000000000000000040818180808080894
:1040D0000808080808080808080808080C0C0C0854
:1040E00000000000000000000000000000000000D0
:1040F00000000000000000000000000000000000C0
:1041000000000000000000000103FEFE00000000AF
:10411000040818180808080808080808080404040F
:1041200002003F1F0000000000000000000000002F
:10413000000000000000000000000000000000007F
:10414000000000000000000000000000000000006F
:104150000103FEFE0000000000000000000000005F
:10416000000000000000000000003F1F00000000F1
:10417000000000000000000000000000000000003F
:10418000000000000000000000000000000000002F
:10419000000000000000000000000000000000001F
:1041A000000000000000000000000000000000000F
:1041B00000000000000000000000000000000000FF
:1041C00000000000000000000000000000000000EF
:1041D00000000000000000000000000000000001DE
:1041E00003FEFE8080C0C0800000000000000000D0
:1041F0000000000000000000003F1F000000000061
:1042000000000000000000000000000000000000AE
:10421000000000000000000000000000000000009E
:1042200000000000000002FEFC8183FEFE00000092
:104230000000000000000000000000000000001F5F
:104240000F00003F1F000000000000000000000001
:10425000000000000000000000000000000000005E
:10426000000000000000000000000000000000014D
:1042700003FEFE2020B0B02000000000000000007F
:104280000000000000000000003F1F0101010101CB
:10429000000000000000000000000000000000001E
:1042A000000000000000000000000000000000000E
:1042B00000000000000002FEFC2123FEFE000000C2
:1042C0000000000000000000000000000000001FCF
:1042D0000F01013F1F00000000000000000000006F
:1042E00000000000000000000000000000000000CE
:1042F000000000000000000000000000008080803E
:104300008183FEFE000000000000000000000000AD
:10431000000000000000010100003F1F000000003D
:10432000000000000000000000000000000000008D
:10433000000000000000000000000000000000007D
:1043400000000080808082FEFC0103FEFE00000071
:104350000000000000000000000000000100001F3D
:104360000F00003F1F0000000000000000000000E0
:10437000000000000000000000000000000000003D
:1043800000000000000000000000000000002060AD
:104390002123FEFE000000000000000000000000DD
:1043A000000000000000010301013F1F00000000A9
:1043B00000000000000000000000000000000000FD
:1043C00000000000000000000000000000000000ED
:1043D00000000020602022FEFC0103FEFE00000021
:1043E0000000000000000000000000010301011FA8
:1043F0000F00003F1F000000000000000000000050
:1044000000000000000000000000000000000000AC
:10441000000000000000000000000000000000009C
:1044200000000000000000000810303010101010D4
:104430001010101E1E101010101010101818181048
:10444000000000000000000000000000000000006C
:10445000000000000000000000000000000000005C
:10446000000000000000000103FEFE00008080004C
:10447000000810303010101E1E101010080808041C
:10448000043F1F01010101010000000000000000C5
:10449000000000000000000000000000000000001C
:1044A000000000000000000000000000000000020A
:1044B000FEFC8183FEFE0000000810303010101E4C
:1044C0001E101008080804041F0F00003F1F000002
:1044D00000000000000000000000000000000000DC
:1044E00000000000000000000000000000000000CC
:1044F00000000000000000000103FEFE00000000BC
:10450000000810303010101E1E101010100808087F
:1045100004043F1F00000000000000000000000035
:10452000000000000000000000000000000000008B
:10453000000000000000000000000000000000007B
:1045400000000000000000001020606020202020FB
:10455000243C382020223E3C2020202030303020B7
:10456000000000000000000000000000000000004B
:10457000000000000000000000000000000000003B
:10458000000000000000000000000000000000002B
:104590000408181808080808080808F8780808081F
:1045A000080808080C0C0C080000000000000000BF
:1045B00000000000000000000000000000000000FB
:1045C00000000000000000000000000000000000EB
:1045D0000103FEFE0000000004081818080808F88F
:1045E000780808080414343212107F3F00000000DD
:1045F00000000000000000000000000000000000BB
:1046000000000000000000000000000000000000AA
:104610000000000000000002FEFC0103FEFE00009E
:1046200004081818080808F8780808041434121048
:104630007F3F00007F3F00000000000000000000FE
:10464000000000000000000000000000000000006A
:10465000000000000000000000000000000000005A
:104660000103FEFE0000000004081818080808F8FE
:10467000780808080404040202007F3F00000000DC
:10468000000000000000000000000000000000002A
:10469000000000000000000000000000000000001A
:1046A000000000000000000000000000000000000A
:1046B0000408181808080808F87808080808F8789E
:1046C000080808080C0C0C0800000000000000009E
:1046D00000000000000000000000000000000000DA
:1046E00000000000000000000000000000000000CA
:1046F0000000000000000000081030301010101002
:104700001010101010101010101010101818181091
:104710000000000000000000000000000000000099
:104720000000000000000000000000000000000089
:1047300000000000000000000103FEFE0000000079
:104740000810303010101010101010101008080849
:1047500004003F1F000000000000000000000000F7
:104760000000000000000000000000000000000049
:104770000000000000000000000000000000000039
:104780000103FEFE00000000000000000000000029
:10479000000000000000000000003F1F00000000BB
:1047A0000000000000000000000000000000000009
:1047B00000000000000000000000000000000000F9
:1047C00000000000000000000000000000000000E9
:1047D00000000000000000000000000000000000D9
:1047E00000000000000000000000000000000000C9
:1047F00000000000000000000000000000000000B9
:1048000000000000000000000000000000000000A8
:104810000000000000000000000000000000808098
:104820008080808080808080808080000000000008
:104830000000000000000001010000000000000076
:1048400000FF3F000000000000000000000000002A
:104850000000000000000000000000000000000058
:1048600000000000808080808080800080808080C8
:1048700080808000000000000000000000010000B7
:1048800000FF3F000001000000FF3F0000000000AB
:104890000000000000000000000000000000000018
:1048A0000000000000000000000000008080808008
:1048B00080808000000000808080000000000000F8
:1048C000000000000001000000FF3F804060301841
:1048D0000F173360600000000000000000000000BF
:1048E00000000000000000000000000000000000C8
:1048F00000000000000000000000000000000000B8
:1049000000000000000000000000000000000001A6
:10491000033F7E40404040404060606040000000F7
:104920000000000000000000000000000000000087
:104930000000000000000000000000008080000077
:104940000000000080808080808080800000000067
:1049500000000000003F7F60602020A050613118FF
:104960000C0F1B3170600000000000000000000010
:104970000000000000000000000000000000000037
:10498000000000008080000000000000000040C027
:10499000C08000000000000000000000003F7F60B9
:1049A0006020201206327ACE86CE7A3203020000D0
:1049B00000000000000000000000000000000000F7
:1049C00000000000000000000000000000000000E7
:1049D00000000000000000000080800000000000D7
:1049E0000000000000000001037FFF8181818181C0
:1049F0008181C1C1800000000000000000000000B3
:104A000000000000000000000000000000000000A6
:104A10000000000000000000808080808080808096
:104A20008080808000000000000000000000000086
:104A30000879F98888888888888FCBC08000000032
:104A40000000000000000000000000000000000066
:104A50000000000000000000000000008080808056
:104A600080808080008080808080808000000000C6
:104A700000000000047DFCC4C44745200000010084
:104A80000000FF3F000000000000000000000000E8
:104A90000000000000000000000000000000000016
:104AA0000000000080808080808080000080808006
:104AB000808080808000000000000000047DFCC435
:104AC000C44745200000FF7F40407F5F000000009A
:104AD00000000000000000000000000000000000D6
:104AE00000000000000000000000000080808080C6
:104AF00080808000808000000040C08000000000B6
:104B000000000000047DFCC4C447452000FF7F4432
:104B10004444FF7F0000000000000000000000008F
:104B20000000000000000000000000000000000085
:104B300000000000808080808080808000000080F5
:104B4000808000000000000000000000047DFCC424
:104B5000C44745A0406030180F1F3370600000004C
:104B60000000000000000000000000000000000045
:104B70000000000000000000000000008080808035
:104B80008080808000808080808080C080000000E5
:104B900000000000047DFCC4C447452000007FFFE6
:104BA000888888CC88000000000000000000000019
:104BB00000000000000000000000000000000000F5
:104BC0000000000080808080808080008080808065
:104BD000808080C08000000000000000047DFCC4D4
:104BE000C44745208082FF9E80FF9FC08000000058
:104BF00000000000000000000000000000000000B5
:104C000000000000000000000000000080808080A4
:104C100080808080000040C0C08000000000000054
:104C200000000000047DFCC4C447452002367ACE53
:104C300086CE7A3302000000000000000000000071
:104C40000000000000000000000000000000000064
:104C50000000000000000000000000000000000054
:104C60000000000000000000000000000000010340
:104C7000FF7F414141414141417F4F03000000001E
:104C80000000000000000000000000000000000024
:104C90000000000000000000000000000000008094
:104CA000800000000000000040C080000000000004
:104CB0000000000000000000FF7F444444444444DE
:104CC00044FF7F0000000000000000000000000022
:104CD00000000000000000000000000000000000D4
:104CE0000000000000808000000040C08000000044
:104CF0008080800000000000000000000000FF7FB6
:104D00004444447FFF406030180F17336060000058
:104D10000000000000000000000000000000000093
:104D20000000000000000000000000000000000083
:104D300000000080808000000000000000000000F3
:104D400000000000008040402030180C07070D08CC
:104D5000183070600000000000000000000000003B
:104D60000000000000000000000000000000000043
:104D70000000000000000000808080000000008033
:104D8000808000000000000000000040202010187B
:104D90000C07472D3810180C07070D183830000085
:104DA0000000000000000000000000000000000003
:104DB00000000000000000000000000000000000F3
:104DC0000000000000C0C000000000000000000063
:104DD0000000000000000000001C3E63C1C1C14192
:104DE000633E1C0000000000000000000000000006
:104DF00000000000000000000000000000000000B3
:104E00000000000000000080808080808080808022
:104E10008080800000000000000000000000008092
:104E200041412030180C070F19307060000000005D
:104E30000000000000000000000000000000000072
:104E40000000000000000000000000000000000062
:104E50000000202060604000000000000000000012
:104E600000000000000000814343213111190D0FA3
:104E70001B31716000000000000000000000000015
:104E80000000000000000000000000000000000022
:104E90000000000000000000000000000000000012
:104EA000000000000000000000000000001031338E
:104EB0001311111111090989793F0F000000000039
:104EC00000000000000000000000000000000000E2
:104ED00000000000000000000000000000000000D2
:104EE0000000000000000000008000000000000042
:104EF00000000000000001037FFF898989898989FA
:104F000089CDC98000000000000000000000000002
:104F10000000000000000000000000000000000091
:104F20000000000000008080808080808080808081
:104F300080C0C0800000000000000000002040C1D0
:104F4000C1427E5C4040417F5E40606040000000A6
:104F50000000000000000000000000000000000051
:104F600000000000000000000000000000800000C1
:104F70000000202060606040000080800000000091
:104F80000000000000000103033179CD858787CD43
:104F90007931010101000000000000000000000064
:104FA0000000000000000000000000000000000001
:104FB00000000000000000000000000000000000F1
:104FC00000000000000000000000000000000000E1
:104FD00000000000000000000000000000000000D1
:104FE00000000000000000000000000000000000C1
:104FF00000000000000000000000000000008080B1
:105000008080808080808080808080000000000020
:10501000000000000000000101000000000000008E
:1050200000FF3F0000000000000000000000000042
:105030000000000000000000000000000000000070
:105040000000000000808080808080800080808060
:10505000808080800000000000000000000001004F
:105060000000FF3F000001000000FF3F00000000C3
:105070000000000000000000000000000000000030
:1050800000000000000000000000000000808080A0
:105090008080808000000000808080000000000090
:1050A00000000000000001000000FF7F8040603031
:1050B000180F1733606000000000000000000000BF
:1050C00000000000000000000000000000000000E0
:1050D00000000000000000000000000000000000D0
:1050E00000000000000000000000000000000001BF
:1050F000033F7E4040404040406060604000000010
:10510000000000000000000000000000000000009F
:10511000000000000000000000000000808000008F
:10512000000000008080808080808080000000007F
:1051300000000000003F7F60602020A05061311817
:105140000C0F1B3170600000000000000000000028
:10515000000000000000000000000000000000004F
:10516000000000000000000000000000000040C03F
:10517000C08000000000000000000000017FFEC0B1
:10518000C040404226327ACE86CE7A3302000000FA
:10519000000000000000000000000000000000000F
:1051A00000000000000000000000000000000000FF
:1051B00000000000000000000080800000000000EF
:1051C0000000000000000001037FFF8181818181D8
:1051D0008181C1C1800000000000000000000000CB
:1051E00000000000000000000000000000000000BF
:1051F000000000000000008080808080808080802F
:105200008080808000000000000000000000000896
:1052100079F9888888888888888FCBC080000000CA
:10522000000000000000000000000000000000007E
:10523000000000000000000000000000808080806E
:1052400080808080008080808080808000000000DE
:1052500000000000047DFCC4C4474540200001005C
:105260000000FF3F00000000000000000000000000
:10527000000000000000000000000000000000002E
:10528000000000008080808080808000008080801E
:10529000808080808000000000000000047DFCC44D
:1052A000C44745402000FF7F40407F5F0000000072
:1052B00000000000000000000000000000000000EE
:1052C00000000000000000000000000080808080DE
:1052D00080808000808000000040C08000000000CE
:1052E00000000000047DFCC4C447454020FF7F440B
:1052F0004444FF7F000000000000000000000000A8
:10530000000000000000000000000000000000009D
:10531000000000008080808080808080000000800D
:10532000808000000000000000000000047DFCC43C
:10533000C44745C0606030180F1F33706000000024
:10534000000000000000000000000000000000005D
:10535000000000000000000000000000808080804D
:105360008080808000808080808080C080000000FD
:1053700000000000047DFCC4C447454020007FFFBE
:10538000888888CC88000000000000000000000031
:10539000000000000000000000000000000000000D
:1053A000000000008080808080808080008080807D
:1053B00080808080C080000000000000047DFCC46C
:1053C000C4444745208082FF9E80FF9FC08000002C
:1053D00000000000000000000000000000000000CD
:1053E00000000000000000000000000080808080BD
:1053F0008080808080000040C0C0800000000000ED
:1054000000000000047DFCC4C44447452002367AF5
:10541000CE86CE7A330200000000000000000000BB
:10542000000000000000000000000000000000007C
:10543000000000000000000000000000000000006C
:105440000000000000000000000000000000010358
:10545000FF7F414141414141417F4F030000000036
:10546000000000000000000000000000000000003C
:10547000000000000000000000000000000000002C
:1054800080800000000000000040C080000000009C
:10549000000000000000000000FF7F44444444443A
:1054A0004444FF7F000000000000000000000000F6
:1054B00000000000000000000000000000000000EC
:1054C0000000000000808000000040C0800000005C
:1054D0008080800000000000000000000000FF7FCE
:1054E0004444447FFF406030180F17336060000071
:1054F00000000000000000000000000000000000AC
:10550000000000000000000000000000000000009B
:10551000000000808080000000000000000000000B
:1055200000000000008040402030180C07070D08E4
:105530001830706000000000000000000000000053
:10554000000000000000000000000000000000005B
:10555000000000000000000080808000000000804B
:105560008080000000000000000000402020101893
:105570000C07472D3810180C07070D18383000009D
:10558000000000000000000000000000000000001B
:10559000000000000000000000000000000000000B
:1055A000000000000000C0C000000000000000007B
:1055B000000000000000000000001C3E63C1C1C1EB
:1055C00041633E1C000000000000000000000000DD
:1055D00000000000000000000000000000000000CB
:1055E00000000000000000008080808080808080BB
:1055F00080808080000000000000000000000000AB
:105600008041412030180C070F19307060000000F5
:10561000000000000000000000000000000000008A
:10562000000000000000000000000000000000007A
:10563000000000202060604000000000000000002A
:105640000000000000000000814343213111190DCA
:105650000F1B31716000000000000000000000001E
:10566000000000000000000000000000000000003A
:1056700000000000000000808080808080808080AA
:1056800080808080000000000000000000000818FA
:105690001909080808080484443F1F03000000009B
:1056A00000000000000000000000000000000000FA
:1056B000000000000000000000000000000000806A
:1056C000808080808080808080C08000000000001A
:1056D0000000000000000000017FFF8888888888A3
:1056E00088CCC8800000000000000000000000001E
:1056F00000000000000000000000000000000000AA
:105700000000000000000080808080808080808019
:105710008080C0C08000000000000000000040C089
:10572000C140427E5C4040417F5E4060604000007E
:105730000000000000000000000000000000000069
:1057400000000000000000000000000000008000D9
:1057500000000000206060604000008080000000C9
:10576000000000000000000103033179CD85878728
:10577000CD793101010100000000000000000000AF
:105780000000000000000000000000000000000019
:105790000000000000000000000000000000000009
:1057A00000000000000000000000000000000000F9
:1057B00000000000000000000000000000000000E9
:1057C00000000000000000000000000000000000D9
:1057D0000000000000000000000000000000008049
:1057E00080808080808080808080808000000000B9
:1057F00000000000000000000101000000000000A7
:105800000000FF3F0000000000000000000000005A
:105810000000000000000000000000000000000088
:1058200000000000000080808080808080008080F8
:1058300080808080800000000000000000000001E7
:10584000000000FF3F000001000000FF3F000000DB
:105850000000000000000000000000000000000048
:105860000000000000000000000000000000808038
:105870008080808080000000008080800000000028
:105880000000000000000001000000FF7F80406079
:1058900030180F17336060000000000000000000A7
:1058A00000000000000000000000000000000000F8
:1058B00000000000000000000000000000000000E8
:1058C00000000000000000000000000000000000D8
:1058D00001033F7E40404040404060606040000027
:1058E00000000000000000000000000000000000B8
:1058F00000000000000000000000000080800000A8
:105900000000000080808080808080800000000097
:1059100000000000003F7F60602020A0506131182F
:105920000C0F1B3170600000000000000000000040
:105930000000000000000000000000000000000067
:10594000000000000000000000000000000040C057
:10595000C08000000000000000000000017FFEC0C9
:10596000C040402002327ACE86CE7A330200000058
:105970000000000000000000000000000000000027
:105980000000000000000000000000000000000017
:105990000000000000000000008080000000000007
:1059A0000000000000000001037FFF8181818181F0
:1059B0008181C1C1800000000000000000000000E3
:1059C00000000000000000000000000000000000D7
:1059D0000000000000000080808080808080808047
:1059E00080808080000000000000000000000008AF
:1059F00079F9888888888888888FCBC080000000E3
:105A00000000000000000000000000000000000096
:105A10000000000000000000000000008080808086
:105A20008080808080008080808080808000000076
:105A300000000000047DFCC4C44447454020000130
:105A4000000000FF3F000000000000000000000018
:105A50000000000000000000000000000000000046
:105A600000000000808080808080808080008080B6
:105A7000808080808080000000000000047DFCC4E5
:105A8000C4444745200000FF7F40407F5F00000086
:105A90000000000000000000000000000000000006
:105AA00000000000000000000000000080808080F6
:105AB0008080808000808000000040C08000000066
:105AC00000000000047DFCC4C44447452000FF7F63
:105AD000444444FF7F00000000000000000000007C
